:0200000007fff8
:0200010007fff7
:0200020007fff6
:0200030007fff5
:0200040007fff4
:0200050007fff3
:0200060007fff2
:0200070007fff1
:0200080007fff0
:0200090007ffef
:02000a0007ffee
:02000b0007ffed
:02000c0007ffec
:02000d0007ffeb
:02000e0007ffea
:02000f0007ffe9
:0200100007ffe8
:0200110007ffe7
:0200120007ffe6
:0200130007ffe5
:0200140007ffe4
:0200150007ffe3
:0200160007ffe2
:0200170007ffe1
:0200180007ffe0
:0200190007ffdf
:02001a0007ffde
:02001b0007ffdd
:02001c0007ffdc
:02001d0007ffdb
:02001e0007ffda
:02001f0007ffd9
:0200200007ffd8
:0200210007ffd7
:0200220007ffd6
:0200230007ffd5
:0200240007ffd4
:0200250007ffd3
:0200260007ffd2
:0200270007ffd1
:0200280007ffd0
:0200290007ffcf
:02002a0007ffce
:02002b0007ffcd
:02002c0007ffcc
:02002d0007ffcb
:02002e0007ffca
:02002f0007ffc9
:0200300007ffc8
:0200310007ffc7
:0200320007ffc6
:0200330007ffc5
:0200340007ffc4
:0200350007ffc3
:0200360007ffc2
:0200370007ffc1
:0200380007ffc0
:0200390007ffbf
:02003a0007ffbe
:02003b0007ffbd
:02003c0007ffbc
:02003d0007ffbb
:02003e0007ffba
:02003f0007ffb9
:0200400007ffb8
:0200410007ffb7
:0200420007ffb6
:0200430007ffb5
:0200440007ffb4
:0200450007ffb3
:0200460007ffb2
:0200470007ffb1
:0200480007ffb0
:0200490007ffaf
:02004a0007ffae
:02004b0007ffad
:02004c0007ffac
:02004d0007ffab
:02004e0007ffaa
:02004f0007ffa9
:0200500007ffa8
:0200510007ffa7
:0200520007ffa6
:0200530007ffa5
:0200540007ffa4
:0200550007ffa3
:0200560007ffa2
:0200570007ffa1
:0200580007ffa0
:0200590007ff9f
:02005a0007ff9e
:02005b0007ff9d
:02005c0007ff9c
:02005d0007ff9b
:02005e0007ff9a
:02005f0007ff99
:0200600007ff98
:0200610007ff97
:0200620007ff96
:0200630007ff95
:0200640007ff94
:0200650007ff93
:0200660007ff92
:0200670007ff91
:0200680007ff90
:0200690007ff8f
:02006a0007ff8e
:02006b0007ff8d
:02006c0007ff8c
:02006d0007ff8b
:02006e0007ff8a
:02006f0007ff89
:0200700007ff88
:0200710007ff87
:0200720007ff86
:0200730007ff85
:0200740007ff84
:0200750007ff83
:0200760007ff82
:0200770007ff81
:0200780007ff80
:0200790007ff7f
:02007a0007ff7e
:02007b0007ff7d
:02007c0007ff7c
:02007d0007ff7b
:02007e0007ff7a
:02007f0007ff79
:0200800007ff78
:0200810007ff77
:0200820007ff76
:0200830007ff75
:0200840007ff74
:0200850007ff73
:0200860007ff72
:0200870007ff71
:0200880007ff70
:0200890007ff6f
:02008a0007ff6e
:02008b0007ff6d
:02008c0007ff6c
:02008d0007ff6b
:02008e0007ff6a
:02008f0007ff69
:0200900007ff68
:0200910007ff67
:0200920007ff66
:0200930007ff65
:0200940007ff64
:0200950007ff63
:0200960007ff62
:0200970007ff61
:0200980007ff60
:0200990007ff5f
:02009a0007ff5e
:02009b0007ff5d
:02009c0007ff5c
:02009d0007ff5b
:02009e0007ff5a
:02009f0007ff59
:0200a00007ff58
:0200a10007ff57
:0200a20007ff56
:0200a30007ff55
:0200a40007ff54
:0200a50007ff53
:0200a60007ff52
:0200a70007ff51
:0200a80007ff50
:0200a90007ff4f
:0200aa0007ff4e
:0200ab0007ff4d
:0200ac0007ff4c
:0200ad0007ff4b
:0200ae0007ff4a
:0200af0007ff49
:0200b00007ff48
:0200b10007ff47
:0200b20007ff46
:0200b30007ff45
:0200b40007ff44
:0200b50007ff43
:0200b60007ff42
:0200b70007ff41
:0200b80007ff40
:0200b90007ff3f
:0200ba0007ff3e
:0200bb0007ff3d
:0200bc0007ff3c
:0200bd0007ff3b
:0200be0007ff3a
:0200bf0007ff39
:0200c00007ff38
:0200c10007ff37
:0200c20007ff36
:0200c30007ff35
:0200c40007ff34
:0200c50007ff33
:0200c60007ff32
:0200c70007ff31
:0200c80007ff30
:0200c90007ff2f
:0200ca0007ff2e
:0200cb0007ff2d
:0200cc0007ff2c
:0200cd0007ff2b
:0200ce0007ff2a
:0200cf0007ff29
:0200d00007ff28
:0200d10007ff27
:0200d20007ff26
:0200d30007ff25
:0200d40007ff24
:0200d50007ff23
:0200d60007ff22
:0200d70007ff21
:0200d80007ff20
:0200d90007ff1f
:0200da0007ff1e
:0200db0007ff1d
:0200dc0007ff1c
:0200dd0007ff1b
:0200de0007ff1a
:0200df0007ff19
:0200e00007ff18
:0200e10007ff17
:0200e20007ff16
:0200e30007ff15
:0200e40007ff14
:0200e50007ff13
:0200e60007ff12
:0200e70007fe12
:0200e80007fe11
:0200e90007fe10
:0200ea0007fe0f
:0200eb0007fe0e
:0200ec0007fe0d
:0200ed0007fe0c
:0200ee0007fe0b
:0200ef0007fe0a
:0200f00007fe09
:0200f10007fe08
:0200f20007fe07
:0200f30007fe06
:0200f40007fe05
:0200f50007fe04
:0200f60007fe03
:0200f70007fe02
:0200f80007fe01
:0200f90007fe00
:0200fa0007feff
:0200fb0007fefe
:0200fc0007fefd
:0200fd0007fefc
:0200fe0007fefb
:0200ff0007fefa
:0201000007fef8
:0201010007fef7
:0201020007fef6
:0201030007fef5
:0201040007fef4
:0201050007fef3
:0201060007fef2
:0201070007fef1
:0201080007fef0
:0201090007feef
:02010a0007feee
:02010b0007feed
:02010c0007feec
:02010d0007feeb
:02010e0007feea
:02010f0007fee9
:0201100007fee8
:0201110007fee7
:0201120007fee6
:0201130007fee5
:0201140007fee4
:0201150007fee3
:0201160007fee2
:0201170007fee1
:0201180007fee0
:0201190007fedf
:02011a0007fede
:02011b0007fedd
:02011c0007fedc
:02011d0007fedb
:02011e0007feda
:02011f0007fed9
:0201200007fed8
:0201210007fed7
:0201220007fed6
:0201230007fed5
:0201240007fed4
:0201250007fed3
:0201260007fed2
:0201270007fed1
:0201280007fed0
:0201290007fecf
:02012a0007fece
:02012b0007fecd
:02012c0007fecc
:02012d0007fecb
:02012e0007feca
:02012f0007fec9
:0201300007fec8
:0201310007fec7
:0201320007fec6
:0201330007fec5
:0201340007fec4
:0201350007fec3
:0201360007fec2
:0201370007fec1
:0201380007fec0
:0201390007febf
:02013a0007febe
:02013b0007febd
:02013c0007febc
:02013d0007febb
:02013e0007feba
:02013f0007feb9
:0201400007feb8
:0201410007feb7
:0201420007feb6
:0201430007feb5
:0201440007feb4
:0201450007feb3
:0201460007feb2
:0201470007feb1
:0201480007feb0
:0201490007feaf
:02014a0007feae
:02014b0007fead
:02014c0007feac
:02014d0007feab
:02014e0007feaa
:02014f0007fea9
:0201500007fea8
:0201510007fea7
:0201520007fea6
:0201530007fea5
:0201540007fea4
:0201550007fea3
:0201560007fea2
:0201570007fea1
:0201580007fea0
:0201590007fe9f
:02015a0007fe9e
:02015b0007fe9d
:02015c0007fe9c
:02015d0007fe9b
:02015e0007fe9a
:02015f0007fe99
:0201600007fe98
:0201610007fe97
:0201620007fe96
:0201630007fe95
:0201640007fe94
:0201650007fe93
:0201660007fe92
:0201670007fe91
:0201680007fe90
:0201690007fe8f
:02016a0007fe8e
:02016b0007fe8d
:02016c0007fe8c
:02016d0007fe8b
:02016e0007fe8a
:02016f0007fe89
:0201700007fe88
:0201710007fe87
:0201720007fe86
:0201730007fe85
:0201740007fe84
:0201750007fe83
:0201760007fe82
:0201770007fe81
:0201780007fe80
:0201790007fe7f
:02017a0007fe7e
:02017b0007fe7d
:02017c0007fe7c
:02017d0007fe7b
:02017e0007fe7a
:02017f0007fe79
:0201800007fe78
:0201810007fe77
:0201820007fe76
:0201830007fe75
:0201840007fe74
:0201850007fe73
:0201860007fe72
:0201870007fe71
:0201880007fe70
:0201890007fe6f
:02018a0007fe6e
:02018b0007fe6d
:02018c0007fe6c
:02018d0007fe6b
:02018e0007fe6a
:02018f0007fe69
:0201900007fd69
:0201910007fd68
:0201920007fd67
:0201930007fd66
:0201940007fd65
:0201950007fd64
:0201960007fd63
:0201970007fd62
:0201980007fd61
:0201990007fd60
:02019a0007fd5f
:02019b0007fd5e
:02019c0007fd5d
:02019d0007fd5c
:02019e0007fd5b
:02019f0007fd5a
:0201a00007fd59
:0201a10007fd58
:0201a20007fd57
:0201a30007fd56
:0201a40007fd55
:0201a50007fd54
:0201a60007fd53
:0201a70007fd52
:0201a80007fd51
:0201a90007fd50
:0201aa0007fd4f
:0201ab0007fd4e
:0201ac0007fd4d
:0201ad0007fd4c
:0201ae0007fd4b
:0201af0007fd4a
:0201b00007fd49
:0201b10007fd48
:0201b20007fd47
:0201b30007fd46
:0201b40007fd45
:0201b50007fd44
:0201b60007fd43
:0201b70007fd42
:0201b80007fd41
:0201b90007fd40
:0201ba0007fd3f
:0201bb0007fd3e
:0201bc0007fd3d
:0201bd0007fd3c
:0201be0007fd3b
:0201bf0007fd3a
:0201c00007fd39
:0201c10007fd38
:0201c20007fd37
:0201c30007fd36
:0201c40007fd35
:0201c50007fd34
:0201c60007fd33
:0201c70007fd32
:0201c80007fd31
:0201c90007fd30
:0201ca0007fd2f
:0201cb0007fd2e
:0201cc0007fd2d
:0201cd0007fd2c
:0201ce0007fd2b
:0201cf0007fd2a
:0201d00007fd29
:0201d10007fd28
:0201d20007fd27
:0201d30007fd26
:0201d40007fd25
:0201d50007fd24
:0201d60007fd23
:0201d70007fd22
:0201d80007fd21
:0201d90007fd20
:0201da0007fd1f
:0201db0007fd1e
:0201dc0007fd1d
:0201dd0007fd1c
:0201de0007fd1b
:0201df0007fd1a
:0201e00007fd19
:0201e10007fd18
:0201e20007fd17
:0201e30007fd16
:0201e40007fd15
:0201e50007fd14
:0201e60007fd13
:0201e70007fd12
:0201e80007fd11
:0201e90007fd10
:0201ea0007fd0f
:0201eb0007fd0e
:0201ec0007fd0d
:0201ed0007fd0c
:0201ee0007fd0b
:0201ef0007fd0a
:0201f00007fd09
:0201f10007fd08
:0201f20007fd07
:0201f30007fd06
:0201f40007fd05
:0201f50007fd04
:0201f60007fd03
:0201f70007fd02
:0201f80007fd01
:0201f90007fd00
:0201fa0007fdff
:0201fb0007fdfe
:0201fc0007fdfd
:0201fd0007fdfc
:0201fe0007fdfb
:0201ff0007fdfa
:0202000007fdf8
:0202010007fdf7
:0202020007fdf6
:0202030007fdf5
:0202040007fcf5
:0202050007fcf4
:0202060007fcf3
:0202070007fcf2
:0202080007fcf1
:0202090007fcf0
:02020a0007fcef
:02020b0007fcee
:02020c0007fced
:02020d0007fcec
:02020e0007fceb
:02020f0007fcea
:0202100007fce9
:0202110007fce8
:0202120007fce7
:0202130007fce6
:0202140007fce5
:0202150007fce4
:0202160007fce3
:0202170007fce2
:0202180007fce1
:0202190007fce0
:02021a0007fcdf
:02021b0007fcde
:02021c0007fcdd
:02021d0007fcdc
:02021e0007fcdb
:02021f0007fcda
:0202200007fcd9
:0202210007fcd8
:0202220007fcd7
:0202230007fcd6
:0202240007fcd5
:0202250007fcd4
:0202260007fcd3
:0202270007fcd2
:0202280007fcd1
:0202290007fcd0
:02022a0007fccf
:02022b0007fcce
:02022c0007fccd
:02022d0007fccc
:02022e0007fccb
:02022f0007fcca
:0202300007fcc9
:0202310007fcc8
:0202320007fcc7
:0202330007fcc6
:0202340007fcc5
:0202350007fcc4
:0202360007fcc3
:0202370007fcc2
:0202380007fcc1
:0202390007fcc0
:02023a0007fcbf
:02023b0007fcbe
:02023c0007fcbd
:02023d0007fcbc
:02023e0007fcbb
:02023f0007fcba
:0202400007fcb9
:0202410007fcb8
:0202420007fcb7
:0202430007fcb6
:0202440007fcb5
:0202450007fcb4
:0202460007fcb3
:0202470007fcb2
:0202480007fcb1
:0202490007fcb0
:02024a0007fcaf
:02024b0007fcae
:02024c0007fcad
:02024d0007fcac
:02024e0007fcab
:02024f0007fcaa
:0202500007fca9
:0202510007fca8
:0202520007fca7
:0202530007fca6
:0202540007fca5
:0202550007fca4
:0202560007fca3
:0202570007fca2
:0202580007fca1
:0202590007fca0
:02025a0007fc9f
:02025b0007fc9e
:02025c0007fc9d
:02025d0007fc9c
:02025e0007fc9b
:02025f0007fc9a
:0202600007fc99
:0202610007fc98
:0202620007fc97
:0202630007fb97
:0202640007fb96
:0202650007fb95
:0202660007fb94
:0202670007fb93
:0202680007fb92
:0202690007fb91
:02026a0007fb90
:02026b0007fb8f
:02026c0007fb8e
:02026d0007fb8d
:02026e0007fb8c
:02026f0007fb8b
:0202700007fb8a
:0202710007fb89
:0202720007fb88
:0202730007fb87
:0202740007fb86
:0202750007fb85
:0202760007fb84
:0202770007fb83
:0202780007fb82
:0202790007fb81
:02027a0007fb80
:02027b0007fb7f
:02027c0007fb7e
:02027d0007fb7d
:02027e0007fb7c
:02027f0007fb7b
:0202800007fb7a
:0202810007fb79
:0202820007fb78
:0202830007fb77
:0202840007fb76
:0202850007fb75
:0202860007fb74
:0202870007fb73
:0202880007fb72
:0202890007fb71
:02028a0007fb70
:02028b0007fb6f
:02028c0007fb6e
:02028d0007fb6d
:02028e0007fb6c
:02028f0007fb6b
:0202900007fb6a
:0202910007fb69
:0202920007fb68
:0202930007fb67
:0202940007fb66
:0202950007fb65
:0202960007fb64
:0202970007fb63
:0202980007fb62
:0202990007fb61
:02029a0007fb60
:02029b0007fb5f
:02029c0007fb5e
:02029d0007fb5d
:02029e0007fb5c
:02029f0007fb5b
:0202a00007fb5a
:0202a10007fb59
:0202a20007fb58
:0202a30007fb57
:0202a40007fb56
:0202a50007fb55
:0202a60007fb54
:0202a70007fb53
:0202a80007fb52
:0202a90007fb51
:0202aa0007fb50
:0202ab0007fb4f
:0202ac0007fb4e
:0202ad0007fb4d
:0202ae0007fb4c
:0202af0007fb4b
:0202b00007fb4a
:0202b10007fb49
:0202b20007fb48
:0202b30007fb47
:0202b40007fa47
:0202b50007fa46
:0202b60007fa45
:0202b70007fa44
:0202b80007fa43
:0202b90007fa42
:0202ba0007fa41
:0202bb0007fa40
:0202bc0007fa3f
:0202bd0007fa3e
:0202be0007fa3d
:0202bf0007fa3c
:0202c00007fa3b
:0202c10007fa3a
:0202c20007fa39
:0202c30007fa38
:0202c40007fa37
:0202c50007fa36
:0202c60007fa35
:0202c70007fa34
:0202c80007fa33
:0202c90007fa32
:0202ca0007fa31
:0202cb0007fa30
:0202cc0007fa2f
:0202cd0007fa2e
:0202ce0007fa2d
:0202cf0007fa2c
:0202d00007fa2b
:0202d10007fa2a
:0202d20007fa29
:0202d30007fa28
:0202d40007fa27
:0202d50007fa26
:0202d60007fa25
:0202d70007fa24
:0202d80007fa23
:0202d90007fa22
:0202da0007fa21
:0202db0007fa20
:0202dc0007fa1f
:0202dd0007fa1e
:0202de0007fa1d
:0202df0007fa1c
:0202e00007fa1b
:0202e10007fa1a
:0202e20007fa19
:0202e30007fa18
:0202e40007fa17
:0202e50007fa16
:0202e60007fa15
:0202e70007fa14
:0202e80007fa13
:0202e90007fa12
:0202ea0007fa11
:0202eb0007fa10
:0202ec0007fa0f
:0202ed0007fa0e
:0202ee0007fa0d
:0202ef0007fa0c
:0202f00007fa0b
:0202f10007fa0a
:0202f20007fa09
:0202f30007fa08
:0202f40007fa07
:0202f50007fa06
:0202f60007fa05
:0202f70007fa04
:0202f80007fa03
:0202f90007fa02
:0202fa0007fa01
:0202fb0007fa00
:0202fc0007faff
:0202fd0007f9ff
:0202fe0007f9fe
:0202ff0007f9fd
:0203000007f9fb
:0203010007f9fa
:0203020007f9f9
:0203030007f9f8
:0203040007f9f7
:0203050007f9f6
:0203060007f9f5
:0203070007f9f4
:0203080007f9f3
:0203090007f9f2
:02030a0007f9f1
:02030b0007f9f0
:02030c0007f9ef
:02030d0007f9ee
:02030e0007f9ed
:02030f0007f9ec
:0203100007f9eb
:0203110007f9ea
:0203120007f9e9
:0203130007f9e8
:0203140007f9e7
:0203150007f9e6
:0203160007f9e5
:0203170007f9e4
:0203180007f9e3
:0203190007f9e2
:02031a0007f9e1
:02031b0007f9e0
:02031c0007f9df
:02031d0007f9de
:02031e0007f9dd
:02031f0007f9dc
:0203200007f9db
:0203210007f9da
:0203220007f9d9
:0203230007f9d8
:0203240007f9d7
:0203250007f9d6
:0203260007f9d5
:0203270007f9d4
:0203280007f9d3
:0203290007f9d2
:02032a0007f9d1
:02032b0007f9d0
:02032c0007f9cf
:02032d0007f9ce
:02032e0007f9cd
:02032f0007f9cc
:0203300007f9cb
:0203310007f9ca
:0203320007f9c9
:0203330007f9c8
:0203340007f9c7
:0203350007f9c6
:0203360007f9c5
:0203370007f9c4
:0203380007f9c3
:0203390007f9c2
:02033a0007f9c1
:02033b0007f9c0
:02033c0007f9bf
:02033d0007f9be
:02033e0007f9bd
:02033f0007f9bc
:0203400007f8bc
:0203410007f8bb
:0203420007f8ba
:0203430007f8b9
:0203440007f8b8
:0203450007f8b7
:0203460007f8b6
:0203470007f8b5
:0203480007f8b4
:0203490007f8b3
:02034a0007f8b2
:02034b0007f8b1
:02034c0007f8b0
:02034d0007f8af
:02034e0007f8ae
:02034f0007f8ad
:0203500007f8ac
:0203510007f8ab
:0203520007f8aa
:0203530007f8a9
:0203540007f8a8
:0203550007f8a7
:0203560007f8a6
:0203570007f8a5
:0203580007f8a4
:0203590007f8a3
:02035a0007f8a2
:02035b0007f8a1
:02035c0007f8a0
:02035d0007f89f
:02035e0007f89e
:02035f0007f89d
:0203600007f89c
:0203610007f89b
:0203620007f89a
:0203630007f899
:0203640007f898
:0203650007f897
:0203660007f896
:0203670007f895
:0203680007f894
:0203690007f893
:02036a0007f892
:02036b0007f891
:02036c0007f890
:02036d0007f88f
:02036e0007f88e
:02036f0007f88d
:0203700007f88c
:0203710007f88b
:0203720007f88a
:0203730007f889
:0203740007f888
:0203750007f887
:0203760007f886
:0203770007f885
:0203780007f884
:0203790007f883
:02037a0007f882
:02037b0007f881
:02037c0007f880
:02037d0007f87f
:02037e0007f77f
:02037f0007f77e
:0203800007f77d
:0203810007f77c
:0203820007f77b
:0203830007f77a
:0203840007f779
:0203850007f778
:0203860007f777
:0203870007f776
:0203880007f775
:0203890007f774
:02038a0007f773
:02038b0007f772
:02038c0007f771
:02038d0007f770
:02038e0007f76f
:02038f0007f76e
:0203900007f76d
:0203910007f76c
:0203920007f76b
:0203930007f76a
:0203940007f769
:0203950007f768
:0203960007f767
:0203970007f766
:0203980007f765
:0203990007f764
:02039a0007f763
:02039b0007f762
:02039c0007f761
:02039d0007f760
:02039e0007f75f
:02039f0007f75e
:0203a00007f75d
:0203a10007f75c
:0203a20007f75b
:0203a30007f75a
:0203a40007f759
:0203a50007f758
:0203a60007f757
:0203a70007f756
:0203a80007f755
:0203a90007f754
:0203aa0007f753
:0203ab0007f752
:0203ac0007f751
:0203ad0007f750
:0203ae0007f74f
:0203af0007f74e
:0203b00007f74d
:0203b10007f74c
:0203b20007f74b
:0203b30007f74a
:0203b40007f749
:0203b50007f748
:0203b60007f747
:0203b70007f647
:0203b80007f646
:0203b90007f645
:0203ba0007f644
:0203bb0007f643
:0203bc0007f642
:0203bd0007f641
:0203be0007f640
:0203bf0007f63f
:0203c00007f63e
:0203c10007f63d
:0203c20007f63c
:0203c30007f63b
:0203c40007f63a
:0203c50007f639
:0203c60007f638
:0203c70007f637
:0203c80007f636
:0203c90007f635
:0203ca0007f634
:0203cb0007f633
:0203cc0007f632
:0203cd0007f631
:0203ce0007f630
:0203cf0007f62f
:0203d00007f62e
:0203d10007f62d
:0203d20007f62c
:0203d30007f62b
:0203d40007f62a
:0203d50007f629
:0203d60007f628
:0203d70007f627
:0203d80007f626
:0203d90007f625
:0203da0007f624
:0203db0007f623
:0203dc0007f622
:0203dd0007f621
:0203de0007f620
:0203df0007f61f
:0203e00007f61e
:0203e10007f61d
:0203e20007f61c
:0203e30007f61b
:0203e40007f61a
:0203e50007f619
:0203e60007f618
:0203e70007f617
:0203e80007f616
:0203e90007f615
:0203ea0007f614
:0203eb0007f613
:0203ec0007f612
:0203ed0007f611
:0203ee0007f511
:0203ef0007f510
:0203f00007f50f
:0203f10007f50e
:0203f20007f50d
:0203f30007f50c
:0203f40007f50b
:0203f50007f50a
:0203f60007f509
:0203f70007f508
:0203f80007f507
:0203f90007f506
:0203fa0007f505
:0203fb0007f504
:0203fc0007f503
:0203fd0007f502
:0203fe0007f501
:0203ff0007f500
:0204000007f5fe
:0204010007f5fd
:0204020007f5fc
:0204030007f5fb
:0204040007f5fa
:0204050007f5f9
:0204060007f5f8
:0204070007f5f7
:0204080007f5f6
:0204090007f5f5
:02040a0007f5f4
:02040b0007f5f3
:02040c0007f5f2
:02040d0007f5f1
:02040e0007f5f0
:02040f0007f5ef
:0204100007f5ee
:0204110007f5ed
:0204120007f5ec
:0204130007f5eb
:0204140007f5ea
:0204150007f5e9
:0204160007f5e8
:0204170007f5e7
:0204180007f5e6
:0204190007f5e5
:02041a0007f5e4
:02041b0007f5e3
:02041c0007f5e2
:02041d0007f5e1
:02041e0007f5e0
:02041f0007f5df
:0204200007f5de
:0204210007f4de
:0204220007f4dd
:0204230007f4dc
:0204240007f4db
:0204250007f4da
:0204260007f4d9
:0204270007f4d8
:0204280007f4d7
:0204290007f4d6
:02042a0007f4d5
:02042b0007f4d4
:02042c0007f4d3
:02042d0007f4d2
:02042e0007f4d1
:02042f0007f4d0
:0204300007f4cf
:0204310007f4ce
:0204320007f4cd
:0204330007f4cc
:0204340007f4cb
:0204350007f4ca
:0204360007f4c9
:0204370007f4c8
:0204380007f4c7
:0204390007f4c6
:02043a0007f4c5
:02043b0007f4c4
:02043c0007f4c3
:02043d0007f4c2
:02043e0007f4c1
:02043f0007f4c0
:0204400007f4bf
:0204410007f4be
:0204420007f4bd
:0204430007f4bc
:0204440007f4bb
:0204450007f4ba
:0204460007f4b9
:0204470007f4b8
:0204480007f4b7
:0204490007f4b6
:02044a0007f4b5
:02044b0007f4b4
:02044c0007f4b3
:02044d0007f4b2
:02044e0007f4b1
:02044f0007f4b0
:0204500007f4af
:0204510007f4ae
:0204520007f4ad
:0204530007f3ad
:0204540007f3ac
:0204550007f3ab
:0204560007f3aa
:0204570007f3a9
:0204580007f3a8
:0204590007f3a7
:02045a0007f3a6
:02045b0007f3a5
:02045c0007f3a4
:02045d0007f3a3
:02045e0007f3a2
:02045f0007f3a1
:0204600007f3a0
:0204610007f39f
:0204620007f39e
:0204630007f39d
:0204640007f39c
:0204650007f39b
:0204660007f39a
:0204670007f399
:0204680007f398
:0204690007f397
:02046a0007f396
:02046b0007f395
:02046c0007f394
:02046d0007f393
:02046e0007f392
:02046f0007f391
:0204700007f390
:0204710007f38f
:0204720007f38e
:0204730007f38d
:0204740007f38c
:0204750007f38b
:0204760007f38a
:0204770007f389
:0204780007f388
:0204790007f387
:02047a0007f386
:02047b0007f385
:02047c0007f384
:02047d0007f383
:02047e0007f382
:02047f0007f381
:0204800007f380
:0204810007f37f
:0204820007f27f
:0204830007f27e
:0204840007f27d
:0204850007f27c
:0204860007f27b
:0204870007f27a
:0204880007f279
:0204890007f278
:02048a0007f277
:02048b0007f276
:02048c0007f275
:02048d0007f274
:02048e0007f273
:02048f0007f272
:0204900007f271
:0204910007f270
:0204920007f26f
:0204930007f26e
:0204940007f26d
:0204950007f26c
:0204960007f26b
:0204970007f26a
:0204980007f269
:0204990007f268
:02049a0007f267
:02049b0007f266
:02049c0007f265
:02049d0007f264
:02049e0007f263
:02049f0007f262
:0204a00007f261
:0204a10007f260
:0204a20007f25f
:0204a30007f25e
:0204a40007f25d
:0204a50007f25c
:0204a60007f25b
:0204a70007f25a
:0204a80007f259
:0204a90007f258
:0204aa0007f257
:0204ab0007f256
:0204ac0007f255
:0204ad0007f254
:0204ae0007f253
:0204af0007f153
:0204b00007f152
:0204b10007f151
:0204b20007f150
:0204b30007f14f
:0204b40007f14e
:0204b50007f14d
:0204b60007f14c
:0204b70007f14b
:0204b80007f14a
:0204b90007f149
:0204ba0007f148
:0204bb0007f147
:0204bc0007f146
:0204bd0007f145
:0204be0007f144
:0204bf0007f143
:0204c00007f142
:0204c10007f141
:0204c20007f140
:0204c30007f13f
:0204c40007f13e
:0204c50007f13d
:0204c60007f13c
:0204c70007f13b
:0204c80007f13a
:0204c90007f139
:0204ca0007f138
:0204cb0007f137
:0204cc0007f136
:0204cd0007f135
:0204ce0007f134
:0204cf0007f133
:0204d00007f132
:0204d10007f131
:0204d20007f130
:0204d30007f12f
:0204d40007f12e
:0204d50007f12d
:0204d60007f12c
:0204d70007f12b
:0204d80007f12a
:0204d90007f129
:0204da0007f128
:0204db0007f028
:0204dc0007f027
:0204dd0007f026
:0204de0007f025
:0204df0007f024
:0204e00007f023
:0204e10007f022
:0204e20007f021
:0204e30007f020
:0204e40007f01f
:0204e50007f01e
:0204e60007f01d
:0204e70007f01c
:0204e80007f01b
:0204e90007f01a
:0204ea0007f019
:0204eb0007f018
:0204ec0007f017
:0204ed0007f016
:0204ee0007f015
:0204ef0007f014
:0204f00007f013
:0204f10007f012
:0204f20007f011
:0204f30007f010
:0204f40007f00f
:0204f50007f00e
:0204f60007f00d
:0204f70007f00c
:0204f80007f00b
:0204f90007f00a
:0204fa0007f009
:0204fb0007f008
:0204fc0007f007
:0204fd0007f006
:0204fe0007f005
:0204ff0007f004
:0205000007f002
:0205010007f001
:0205020007f000
:0205030007f0ff
:0205040007f0fe
:0205050007effe
:0205060007effd
:0205070007effc
:0205080007effb
:0205090007effa
:02050a0007eff9
:02050b0007eff8
:02050c0007eff7
:02050d0007eff6
:02050e0007eff5
:02050f0007eff4
:0205100007eff3
:0205110007eff2
:0205120007eff1
:0205130007eff0
:0205140007efef
:0205150007efee
:0205160007efed
:0205170007efec
:0205180007efeb
:0205190007efea
:02051a0007efe9
:02051b0007efe8
:02051c0007efe7
:02051d0007efe6
:02051e0007efe5
:02051f0007efe4
:0205200007efe3
:0205210007efe2
:0205220007efe1
:0205230007efe0
:0205240007efdf
:0205250007efde
:0205260007efdd
:0205270007efdc
:0205280007efdb
:0205290007efda
:02052a0007efd9
:02052b0007efd8
:02052c0007efd7
:02052d0007efd6
:02052e0007eed6
:02052f0007eed5
:0205300007eed4
:0205310007eed3
:0205320007eed2
:0205330007eed1
:0205340007eed0
:0205350007eecf
:0205360007eece
:0205370007eecd
:0205380007eecc
:0205390007eecb
:02053a0007eeca
:02053b0007eec9
:02053c0007eec8
:02053d0007eec7
:02053e0007eec6
:02053f0007eec5
:0205400007eec4
:0205410007eec3
:0205420007eec2
:0205430007eec1
:0205440007eec0
:0205450007eebf
:0205460007eebe
:0205470007eebd
:0205480007eebc
:0205490007eebb
:02054a0007eeba
:02054b0007eeb9
:02054c0007eeb8
:02054d0007eeb7
:02054e0007eeb6
:02054f0007eeb5
:0205500007eeb4
:0205510007eeb3
:0205520007eeb2
:0205530007eeb1
:0205540007eeb0
:0205550007edb0
:0205560007edaf
:0205570007edae
:0205580007edad
:0205590007edac
:02055a0007edab
:02055b0007edaa
:02055c0007eda9
:02055d0007eda8
:02055e0007eda7
:02055f0007eda6
:0205600007eda5
:0205610007eda4
:0205620007eda3
:0205630007eda2
:0205640007eda1
:0205650007eda0
:0205660007ed9f
:0205670007ed9e
:0205680007ed9d
:0205690007ed9c
:02056a0007ed9b
:02056b0007ed9a
:02056c0007ed99
:02056d0007ed98
:02056e0007ed97
:02056f0007ed96
:0205700007ed95
:0205710007ed94
:0205720007ed93
:0205730007ed92
:0205740007ed91
:0205750007ed90
:0205760007ed8f
:0205770007ed8e
:0205780007ed8d
:0205790007ed8c
:02057a0007ed8b
:02057b0007ed8a
:02057c0007ec8a
:02057d0007ec89
:02057e0007ec88
:02057f0007ec87
:0205800007ec86
:0205810007ec85
:0205820007ec84
:0205830007ec83
:0205840007ec82
:0205850007ec81
:0205860007ec80
:0205870007ec7f
:0205880007ec7e
:0205890007ec7d
:02058a0007ec7c
:02058b0007ec7b
:02058c0007ec7a
:02058d0007ec79
:02058e0007ec78
:02058f0007ec77
:0205900007ec76
:0205910007ec75
:0205920007ec74
:0205930007ec73
:0205940007ec72
:0205950007ec71
:0205960007ec70
:0205970007ec6f
:0205980007ec6e
:0205990007ec6d
:02059a0007ec6c
:02059b0007ec6b
:02059c0007ec6a
:02059d0007ec69
:02059e0007ec68
:02059f0007ec67
:0205a00007ec66
:0205a10007eb66
:0205a20007eb65
:0205a30007eb64
:0205a40007eb63
:0205a50007eb62
:0205a60007eb61
:0205a70007eb60
:0205a80007eb5f
:0205a90007eb5e
:0205aa0007eb5d
:0205ab0007eb5c
:0205ac0007eb5b
:0205ad0007eb5a
:0205ae0007eb59
:0205af0007eb58
:0205b00007eb57
:0205b10007eb56
:0205b20007eb55
:0205b30007eb54
:0205b40007eb53
:0205b50007eb52
:0205b60007eb51
:0205b70007eb50
:0205b80007eb4f
:0205b90007eb4e
:0205ba0007eb4d
:0205bb0007eb4c
:0205bc0007eb4b
:0205bd0007eb4a
:0205be0007eb49
:0205bf0007eb48
:0205c00007eb47
:0205c10007eb46
:0205c20007eb45
:0205c30007eb44
:0205c40007eb43
:0205c50007eb42
:0205c60007ea42
:0205c70007ea41
:0205c80007ea40
:0205c90007ea3f
:0205ca0007ea3e
:0205cb0007ea3d
:0205cc0007ea3c
:0205cd0007ea3b
:0205ce0007ea3a
:0205cf0007ea39
:0205d00007ea38
:0205d10007ea37
:0205d20007ea36
:0205d30007ea35
:0205d40007ea34
:0205d50007ea33
:0205d60007ea32
:0205d70007ea31
:0205d80007ea30
:0205d90007ea2f
:0205da0007ea2e
:0205db0007ea2d
:0205dc0007ea2c
:0205dd0007ea2b
:0205de0007ea2a
:0205df0007ea29
:0205e00007ea28
:0205e10007ea27
:0205e20007ea26
:0205e30007ea25
:0205e40007ea24
:0205e50007ea23
:0205e60007ea22
:0205e70007ea21
:0205e80007ea20
:0205e90007ea1f
:0205ea0007e91f
:0205eb0007e91e
:0205ec0007e91d
:0205ed0007e91c
:0205ee0007e91b
:0205ef0007e91a
:0205f00007e919
:0205f10007e918
:0205f20007e917
:0205f30007e916
:0205f40007e915
:0205f50007e914
:0205f60007e913
:0205f70007e912
:0205f80007e911
:0205f90007e910
:0205fa0007e90f
:0205fb0007e90e
:0205fc0007e90d
:0205fd0007e90c
:0205fe0007e90b
:0205ff0007e90a
:0206000007e908
:0206010007e907
:0206020007e906
:0206030007e905
:0206040007e904
:0206050007e903
:0206060007e902
:0206070007e901
:0206080007e900
:0206090007e9ff
:02060a0007e9fe
:02060b0007e9fd
:02060c0007e8fd
:02060d0007e8fc
:02060e0007e8fb
:02060f0007e8fa
:0206100007e8f9
:0206110007e8f8
:0206120007e8f7
:0206130007e8f6
:0206140007e8f5
:0206150007e8f4
:0206160007e8f3
:0206170007e8f2
:0206180007e8f1
:0206190007e8f0
:02061a0007e8ef
:02061b0007e8ee
:02061c0007e8ed
:02061d0007e8ec
:02061e0007e8eb
:02061f0007e8ea
:0206200007e8e9
:0206210007e8e8
:0206220007e8e7
:0206230007e8e6
:0206240007e8e5
:0206250007e8e4
:0206260007e8e3
:0206270007e8e2
:0206280007e8e1
:0206290007e8e0
:02062a0007e8df
:02062b0007e8de
:02062c0007e8dd
:02062d0007e8dc
:02062e0007e7dc
:02062f0007e7db
:0206300007e7da
:0206310007e7d9
:0206320007e7d8
:0206330007e7d7
:0206340007e7d6
:0206350007e7d5
:0206360007e7d4
:0206370007e7d3
:0206380007e7d2
:0206390007e7d1
:02063a0007e7d0
:02063b0007e7cf
:02063c0007e7ce
:02063d0007e7cd
:02063e0007e7cc
:02063f0007e7cb
:0206400007e7ca
:0206410007e7c9
:0206420007e7c8
:0206430007e7c7
:0206440007e7c6
:0206450007e7c5
:0206460007e7c4
:0206470007e7c3
:0206480007e7c2
:0206490007e7c1
:02064a0007e7c0
:02064b0007e7bf
:02064c0007e7be
:02064d0007e7bd
:02064e0007e7bc
:02064f0007e7bb
:0206500007e6bb
:0206510007e6ba
:0206520007e6b9
:0206530007e6b8
:0206540007e6b7
:0206550007e6b6
:0206560007e6b5
:0206570007e6b4
:0206580007e6b3
:0206590007e6b2
:02065a0007e6b1
:02065b0007e6b0
:02065c0007e6af
:02065d0007e6ae
:02065e0007e6ad
:02065f0007e6ac
:0206600007e6ab
:0206610007e6aa
:0206620007e6a9
:0206630007e6a8
:0206640007e6a7
:0206650007e6a6
:0206660007e6a5
:0206670007e6a4
:0206680007e6a3
:0206690007e6a2
:02066a0007e6a1
:02066b0007e6a0
:02066c0007e69f
:02066d0007e69e
:02066e0007e69d
:02066f0007e69c
:0206700007e69b
:0206710007e59b
:0206720007e59a
:0206730007e599
:0206740007e598
:0206750007e597
:0206760007e596
:0206770007e595
:0206780007e594
:0206790007e593
:02067a0007e592
:02067b0007e591
:02067c0007e590
:02067d0007e58f
:02067e0007e58e
:02067f0007e58d
:0206800007e58c
:0206810007e58b
:0206820007e58a
:0206830007e589
:0206840007e588
:0206850007e587
:0206860007e586
:0206870007e585
:0206880007e584
:0206890007e583
:02068a0007e582
:02068b0007e581
:02068c0007e580
:02068d0007e57f
:02068e0007e57e
:02068f0007e57d
:0206900007e57c
:0206910007e47c
:0206920007e47b
:0206930007e47a
:0206940007e479
:0206950007e478
:0206960007e477
:0206970007e476
:0206980007e475
:0206990007e474
:02069a0007e473
:02069b0007e472
:02069c0007e471
:02069d0007e470
:02069e0007e46f
:02069f0007e46e
:0206a00007e46d
:0206a10007e46c
:0206a20007e46b
:0206a30007e46a
:0206a40007e469
:0206a50007e468
:0206a60007e467
:0206a70007e466
:0206a80007e465
:0206a90007e464
:0206aa0007e463
:0206ab0007e462
:0206ac0007e461
:0206ad0007e460
:0206ae0007e45f
:0206af0007e45e
:0206b00007e35e
:0206b10007e35d
:0206b20007e35c
:0206b30007e35b
:0206b40007e35a
:0206b50007e359
:0206b60007e358
:0206b70007e357
:0206b80007e356
:0206b90007e355
:0206ba0007e354
:0206bb0007e353
:0206bc0007e352
:0206bd0007e351
:0206be0007e350
:0206bf0007e34f
:0206c00007e34e
:0206c10007e34d
:0206c20007e34c
:0206c30007e34b
:0206c40007e34a
:0206c50007e349
:0206c60007e348
:0206c70007e347
:0206c80007e346
:0206c90007e345
:0206ca0007e344
:0206cb0007e343
:0206cc0007e342
:0206cd0007e341
:0206ce0007e340
:0206cf0007e240
:0206d00007e23f
:0206d10007e23e
:0206d20007e23d
:0206d30007e23c
:0206d40007e23b
:0206d50007e23a
:0206d60007e239
:0206d70007e238
:0206d80007e237
:0206d90007e236
:0206da0007e235
:0206db0007e234
:0206dc0007e233
:0206dd0007e232
:0206de0007e231
:0206df0007e230
:0206e00007e22f
:0206e10007e22e
:0206e20007e22d
:0206e30007e22c
:0206e40007e22b
:0206e50007e22a
:0206e60007e229
:0206e70007e228
:0206e80007e227
:0206e90007e226
:0206ea0007e225
:0206eb0007e224
:0206ec0007e223
:0206ed0007e123
:0206ee0007e122
:0206ef0007e121
:0206f00007e120
:0206f10007e11f
:0206f20007e11e
:0206f30007e11d
:0206f40007e11c
:0206f50007e11b
:0206f60007e11a
:0206f70007e119
:0206f80007e118
:0206f90007e117
:0206fa0007e116
:0206fb0007e115
:0206fc0007e114
:0206fd0007e113
:0206fe0007e112
:0206ff0007e111
:0207000007e10f
:0207010007e10e
:0207020007e10d
:0207030007e10c
:0207040007e10b
:0207050007e10a
:0207060007e109
:0207070007e108
:0207080007e107
:0207090007e106
:02070a0007e105
:02070b0007e005
:02070c0007e004
:02070d0007e003
:02070e0007e002
:02070f0007e001
:0207100007e000
:0207110007e0ff
:0207120007e0fe
:0207130007e0fd
:0207140007e0fc
:0207150007e0fb
:0207160007e0fa
:0207170007e0f9
:0207180007e0f8
:0207190007e0f7
:02071a0007e0f6
:02071b0007e0f5
:02071c0007e0f4
:02071d0007e0f3
:02071e0007e0f2
:02071f0007e0f1
:0207200007e0f0
:0207210007e0ef
:0207220007e0ee
:0207230007e0ed
:0207240007e0ec
:0207250007e0eb
:0207260007e0ea
:0207270007e0e9
:0207280007e0e8
:0207290007dfe8
:02072a0007dfe7
:02072b0007dfe6
:02072c0007dfe5
:02072d0007dfe4
:02072e0007dfe3
:02072f0007dfe2
:0207300007dfe1
:0207310007dfe0
:0207320007dfdf
:0207330007dfde
:0207340007dfdd
:0207350007dfdc
:0207360007dfdb
:0207370007dfda
:0207380007dfd9
:0207390007dfd8
:02073a0007dfd7
:02073b0007dfd6
:02073c0007dfd5
:02073d0007dfd4
:02073e0007dfd3
:02073f0007dfd2
:0207400007dfd1
:0207410007dfd0
:0207420007dfcf
:0207430007dfce
:0207440007dfcd
:0207450007dfcc
:0207460007decc
:0207470007decb
:0207480007deca
:0207490007dec9
:02074a0007dec8
:02074b0007dec7
:02074c0007dec6
:02074d0007dec5
:02074e0007dec4
:02074f0007dec3
:0207500007dec2
:0207510007dec1
:0207520007dec0
:0207530007debf
:0207540007debe
:0207550007debd
:0207560007debc
:0207570007debb
:0207580007deba
:0207590007deb9
:02075a0007deb8
:02075b0007deb7
:02075c0007deb6
:02075d0007deb5
:02075e0007deb4
:02075f0007deb3
:0207600007deb2
:0207610007deb1
:0207620007ddb1
:0207630007ddb0
:0207640007ddaf
:0207650007ddae
:0207660007ddad
:0207670007ddac
:0207680007ddab
:0207690007ddaa
:02076a0007dda9
:02076b0007dda8
:02076c0007dda7
:02076d0007dda6
:02076e0007dda5
:02076f0007dda4
:0207700007dda3
:0207710007dda2
:0207720007dda1
:0207730007dda0
:0207740007dd9f
:0207750007dd9e
:0207760007dd9d
:0207770007dd9c
:0207780007dd9b
:0207790007dd9a
:02077a0007dd99
:02077b0007dd98
:02077c0007dd97
:02077d0007dd96
:02077e0007dc96
:02077f0007dc95
:0207800007dc94
:0207810007dc93
:0207820007dc92
:0207830007dc91
:0207840007dc90
:0207850007dc8f
:0207860007dc8e
:0207870007dc8d
:0207880007dc8c
:0207890007dc8b
:02078a0007dc8a
:02078b0007dc89
:02078c0007dc88
:02078d0007dc87
:02078e0007dc86
:02078f0007dc85
:0207900007dc84
:0207910007dc83
:0207920007dc82
:0207930007dc81
:0207940007dc80
:0207950007dc7f
:0207960007dc7e
:0207970007dc7d
:0207980007dc7c
:0207990007dc7b
:02079a0007db7b
:02079b0007db7a
:02079c0007db79
:02079d0007db78
:02079e0007db77
:02079f0007db76
:0207a00007db75
:0207a10007db74
:0207a20007db73
:0207a30007db72
:0207a40007db71
:0207a50007db70
:0207a60007db6f
:0207a70007db6e
:0207a80007db6d
:0207a90007db6c
:0207aa0007db6b
:0207ab0007db6a
:0207ac0007db69
:0207ad0007db68
:0207ae0007db67
:0207af0007db66
:0207b00007db65
:0207b10007db64
:0207b20007db63
:0207b30007db62
:0207b40007db61
:0207b50007da61
:0207b60007da60
:0207b70007da5f
:0207b80007da5e
:0207b90007da5d
:0207ba0007da5c
:0207bb0007da5b
:0207bc0007da5a
:0207bd0007da59
:0207be0007da58
:0207bf0007da57
:0207c00007da56
:0207c10007da55
:0207c20007da54
:0207c30007da53
:0207c40007da52
:0207c50007da51
:0207c60007da50
:0207c70007da4f
:0207c80007da4e
:0207c90007da4d
:0207ca0007da4c
:0207cb0007da4b
:0207cc0007da4a
:0207cd0007da49
:0207ce0007da48
:0207cf0007da47
:0207d00007d947
:0207d10007d946
:0207d20007d945
:0207d30007d944
:0207d40007d943
:0207d50007d942
:0207d60007d941
:0207d70007d940
:0207d80007d93f
:0207d90007d93e
:0207da0007d93d
:0207db0007d93c
:0207dc0007d93b
:0207dd0007d93a
:0207de0007d939
:0207df0007d938
:0207e00007d937
:0207e10007d936
:0207e20007d935
:0207e30007d934
:0207e40007d933
:0207e50007d932
:0207e60007d931
:0207e70007d930
:0207e80007d92f
:0207e90007d92e
:0207ea0007d92d
:0207eb0007d82d
:0207ec0007d82c
:0207ed0007d82b
:0207ee0007d82a
:0207ef0007d829
:0207f00007d828
:0207f10007d827
:0207f20007d826
:0207f30007d825
:0207f40007d824
:0207f50007d823
:0207f60007d822
:0207f70007d821
:0207f80007d820
:0207f90007d81f
:0207fa0007d81e
:0207fb0007d81d
:0207fc0007d81c
:0207fd0007d81b
:0207fe0007d81a
:0207ff0007d819
:0208000007d817
:0208010007d816
:0208020007d815
:0208030007d814
:0208040007d813
:0208050007d713
:0208060007d712
:0208070007d711
:0208080007d710
:0208090007d70f
:02080a0007d70e
:02080b0007d70d
:02080c0007d70c
:02080d0007d70b
:02080e0007d70a
:02080f0007d709
:0208100007d708
:0208110007d707
:0208120007d706
:0208130007d705
:0208140007d704
:0208150007d703
:0208160007d702
:0208170007d701
:0208180007d700
:0208190007d7ff
:02081a0007d7fe
:02081b0007d7fd
:02081c0007d7fc
:02081d0007d7fb
:02081e0007d7fa
:02081f0007d6fa
:0208200007d6f9
:0208210007d6f8
:0208220007d6f7
:0208230007d6f6
:0208240007d6f5
:0208250007d6f4
:0208260007d6f3
:0208270007d6f2
:0208280007d6f1
:0208290007d6f0
:02082a0007d6ef
:02082b0007d6ee
:02082c0007d6ed
:02082d0007d6ec
:02082e0007d6eb
:02082f0007d6ea
:0208300007d6e9
:0208310007d6e8
:0208320007d6e7
:0208330007d6e6
:0208340007d6e5
:0208350007d6e4
:0208360007d6e3
:0208370007d6e2
:0208380007d5e2
:0208390007d5e1
:02083a0007d5e0
:02083b0007d5df
:02083c0007d5de
:02083d0007d5dd
:02083e0007d5dc
:02083f0007d5db
:0208400007d5da
:0208410007d5d9
:0208420007d5d8
:0208430007d5d7
:0208440007d5d6
:0208450007d5d5
:0208460007d5d4
:0208470007d5d3
:0208480007d5d2
:0208490007d5d1
:02084a0007d5d0
:02084b0007d5cf
:02084c0007d5ce
:02084d0007d5cd
:02084e0007d5cc
:02084f0007d5cb
:0208500007d5ca
:0208510007d5c9
:0208520007d4c9
:0208530007d4c8
:0208540007d4c7
:0208550007d4c6
:0208560007d4c5
:0208570007d4c4
:0208580007d4c3
:0208590007d4c2
:02085a0007d4c1
:02085b0007d4c0
:02085c0007d4bf
:02085d0007d4be
:02085e0007d4bd
:02085f0007d4bc
:0208600007d4bb
:0208610007d4ba
:0208620007d4b9
:0208630007d4b8
:0208640007d4b7
:0208650007d4b6
:0208660007d4b5
:0208670007d4b4
:0208680007d4b3
:0208690007d4b2
:02086a0007d4b1
:02086b0007d3b1
:02086c0007d3b0
:02086d0007d3af
:02086e0007d3ae
:02086f0007d3ad
:0208700007d3ac
:0208710007d3ab
:0208720007d3aa
:0208730007d3a9
:0208740007d3a8
:0208750007d3a7
:0208760007d3a6
:0208770007d3a5
:0208780007d3a4
:0208790007d3a3
:02087a0007d3a2
:02087b0007d3a1
:02087c0007d3a0
:02087d0007d39f
:02087e0007d39e
:02087f0007d39d
:0208800007d39c
:0208810007d39b
:0208820007d39a
:0208830007d29a
:0208840007d299
:0208850007d298
:0208860007d297
:0208870007d296
:0208880007d295
:0208890007d294
:02088a0007d293
:02088b0007d292
:02088c0007d291
:02088d0007d290
:02088e0007d28f
:02088f0007d28e
:0208900007d28d
:0208910007d28c
:0208920007d28b
:0208930007d28a
:0208940007d289
:0208950007d288
:0208960007d287
:0208970007d286
:0208980007d285
:0208990007d284
:02089a0007d283
:02089b0007d282
:02089c0007d182
:02089d0007d181
:02089e0007d180
:02089f0007d17f
:0208a00007d17e
:0208a10007d17d
:0208a20007d17c
:0208a30007d17b
:0208a40007d17a
:0208a50007d179
:0208a60007d178
:0208a70007d177
:0208a80007d176
:0208a90007d175
:0208aa0007d174
:0208ab0007d173
:0208ac0007d172
:0208ad0007d171
:0208ae0007d170
:0208af0007d16f
:0208b00007d16e
:0208b10007d16d
:0208b20007d16c
:0208b30007d16b
:0208b40007d06b
:0208b50007d06a
:0208b60007d069
:0208b70007d068
:0208b80007d067
:0208b90007d066
:0208ba0007d065
:0208bb0007d064
:0208bc0007d063
:0208bd0007d062
:0208be0007d061
:0208bf0007d060
:0208c00007d05f
:0208c10007d05e
:0208c20007d05d
:0208c30007d05c
:0208c40007d05b
:0208c50007d05a
:0208c60007d059
:0208c70007d058
:0208c80007d057
:0208c90007d056
:0208ca0007d055
:0208cb0007d054
:0208cc0007cf54
:0208cd0007cf53
:0208ce0007cf52
:0208cf0007cf51
:0208d00007cf50
:0208d10007cf4f
:0208d20007cf4e
:0208d30007cf4d
:0208d40007cf4c
:0208d50007cf4b
:0208d60007cf4a
:0208d70007cf49
:0208d80007cf48
:0208d90007cf47
:0208da0007cf46
:0208db0007cf45
:0208dc0007cf44
:0208dd0007cf43
:0208de0007cf42
:0208df0007cf41
:0208e00007cf40
:0208e10007cf3f
:0208e20007cf3e
:0208e30007cf3d
:0208e40007ce3d
:0208e50007ce3c
:0208e60007ce3b
:0208e70007ce3a
:0208e80007ce39
:0208e90007ce38
:0208ea0007ce37
:0208eb0007ce36
:0208ec0007ce35
:0208ed0007ce34
:0208ee0007ce33
:0208ef0007ce32
:0208f00007ce31
:0208f10007ce30
:0208f20007ce2f
:0208f30007ce2e
:0208f40007ce2d
:0208f50007ce2c
:0208f60007ce2b
:0208f70007ce2a
:0208f80007ce29
:0208f90007ce28
:0208fa0007ce27
:0208fb0007cd27
:0208fc0007cd26
:0208fd0007cd25
:0208fe0007cd24
:0208ff0007cd23
:0209000007cd21
:0209010007cd20
:0209020007cd1f
:0209030007cd1e
:0209040007cd1d
:0209050007cd1c
:0209060007cd1b
:0209070007cd1a
:0209080007cd19
:0209090007cd18
:02090a0007cd17
:02090b0007cd16
:02090c0007cd15
:02090d0007cd14
:02090e0007cd13
:02090f0007cd12
:0209100007cd11
:0209110007cd10
:0209120007cc10
:0209130007cc0f
:0209140007cc0e
:0209150007cc0d
:0209160007cc0c
:0209170007cc0b
:0209180007cc0a
:0209190007cc09
:02091a0007cc08
:02091b0007cc07
:02091c0007cc06
:02091d0007cc05
:02091e0007cc04
:02091f0007cc03
:0209200007cc02
:0209210007cc01
:0209220007cc00
:0209230007ccff
:0209240007ccfe
:0209250007ccfd
:0209260007ccfc
:0209270007ccfb
:0209280007ccfa
:0209290007cbfa
:02092a0007cbf9
:02092b0007cbf8
:02092c0007cbf7
:02092d0007cbf6
:02092e0007cbf5
:02092f0007cbf4
:0209300007cbf3
:0209310007cbf2
:0209320007cbf1
:0209330007cbf0
:0209340007cbef
:0209350007cbee
:0209360007cbed
:0209370007cbec
:0209380007cbeb
:0209390007cbea
:02093a0007cbe9
:02093b0007cbe8
:02093c0007cbe7
:02093d0007cbe6
:02093e0007cbe5
:02093f0007cbe4
:0209400007cae4
:0209410007cae3
:0209420007cae2
:0209430007cae1
:0209440007cae0
:0209450007cadf
:0209460007cade
:0209470007cadd
:0209480007cadc
:0209490007cadb
:02094a0007cada
:02094b0007cad9
:02094c0007cad8
:02094d0007cad7
:02094e0007cad6
:02094f0007cad5
:0209500007cad4
:0209510007cad3
:0209520007cad2
:0209530007cad1
:0209540007cad0
:0209550007cacf
:0209560007c9cf
:0209570007c9ce
:0209580007c9cd
:0209590007c9cc
:02095a0007c9cb
:02095b0007c9ca
:02095c0007c9c9
:02095d0007c9c8
:02095e0007c9c7
:02095f0007c9c6
:0209600007c9c5
:0209610007c9c4
:0209620007c9c3
:0209630007c9c2
:0209640007c9c1
:0209650007c9c0
:0209660007c9bf
:0209670007c9be
:0209680007c9bd
:0209690007c9bc
:02096a0007c9bb
:02096b0007c9ba
:02096c0007c9b9
:02096d0007c8b9
:02096e0007c8b8
:02096f0007c8b7
:0209700007c8b6
:0209710007c8b5
:0209720007c8b4
:0209730007c8b3
:0209740007c8b2
:0209750007c8b1
:0209760007c8b0
:0209770007c8af
:0209780007c8ae
:0209790007c8ad
:02097a0007c8ac
:02097b0007c8ab
:02097c0007c8aa
:02097d0007c8a9
:02097e0007c8a8
:02097f0007c8a7
:0209800007c8a6
:0209810007c8a5
:0209820007c8a4
:0209830007c7a4
:0209840007c7a3
:0209850007c7a2
:0209860007c7a1
:0209870007c7a0
:0209880007c79f
:0209890007c79e
:02098a0007c79d
:02098b0007c79c
:02098c0007c79b
:02098d0007c79a
:02098e0007c799
:02098f0007c798
:0209900007c797
:0209910007c796
:0209920007c795
:0209930007c794
:0209940007c793
:0209950007c792
:0209960007c791
:0209970007c790
:0209980007c78f
:0209990007c68f
:02099a0007c68e
:02099b0007c68d
:02099c0007c68c
:02099d0007c68b
:02099e0007c68a
:02099f0007c689
:0209a00007c688
:0209a10007c687
:0209a20007c686
:0209a30007c685
:0209a40007c684
:0209a50007c683
:0209a60007c682
:0209a70007c681
:0209a80007c680
:0209a90007c67f
:0209aa0007c67e
:0209ab0007c67d
:0209ac0007c67c
:0209ad0007c67b
:0209ae0007c67a
:0209af0007c57a
:0209b00007c579
:0209b10007c578
:0209b20007c577
:0209b30007c576
:0209b40007c575
:0209b50007c574
:0209b60007c573
:0209b70007c572
:0209b80007c571
:0209b90007c570
:0209ba0007c56f
:0209bb0007c56e
:0209bc0007c56d
:0209bd0007c56c
:0209be0007c56b
:0209bf0007c56a
:0209c00007c569
:0209c10007c568
:0209c20007c567
:0209c30007c566
:0209c40007c466
:0209c50007c465
:0209c60007c464
:0209c70007c463
:0209c80007c462
:0209c90007c461
:0209ca0007c460
:0209cb0007c45f
:0209cc0007c45e
:0209cd0007c45d
:0209ce0007c45c
:0209cf0007c45b
:0209d00007c45a
:0209d10007c459
:0209d20007c458
:0209d30007c457
:0209d40007c456
:0209d50007c455
:0209d60007c454
:0209d70007c453
:0209d80007c452
:0209d90007c352
:0209da0007c351
:0209db0007c350
:0209dc0007c34f
:0209dd0007c34e
:0209de0007c34d
:0209df0007c34c
:0209e00007c34b
:0209e10007c34a
:0209e20007c349
:0209e30007c348
:0209e40007c347
:0209e50007c346
:0209e60007c345
:0209e70007c344
:0209e80007c343
:0209e90007c342
:0209ea0007c341
:0209eb0007c340
:0209ec0007c33f
:0209ed0007c33e
:0209ee0007c33d
:0209ef0007c23d
:0209f00007c23c
:0209f10007c23b
:0209f20007c23a
:0209f30007c239
:0209f40007c238
:0209f50007c237
:0209f60007c236
:0209f70007c235
:0209f80007c234
:0209f90007c233
:0209fa0007c232
:0209fb0007c231
:0209fc0007c230
:0209fd0007c22f
:0209fe0007c22e
:0209ff0007c22d
:020a000007c22b
:020a010007c22a
:020a020007c229
:020a030007c228
:020a040007c128
:020a050007c127
:020a060007c126
:020a070007c125
:020a080007c124
:020a090007c123
:020a0a0007c122
:020a0b0007c121
:020a0c0007c120
:020a0d0007c11f
:020a0e0007c11e
:020a0f0007c11d
:020a100007c11c
:020a110007c11b
:020a120007c11a
:020a130007c119
:020a140007c118
:020a150007c117
:020a160007c116
:020a170007c115
:020a180007c114
:020a190007c014
:020a1a0007c013
:020a1b0007c012
:020a1c0007c011
:020a1d0007c010
:020a1e0007c00f
:020a1f0007c00e
:020a200007c00d
:020a210007c00c
:020a220007c00b
:020a230007c00a
:020a240007c009
:020a250007c008
:020a260007c007
:020a270007c006
:020a280007c005
:020a290007c004
:020a2a0007c003
:020a2b0007c002
:020a2c0007c001
:020a2d0007bf01
:020a2e0007bf00
:020a2f0007bfff
:020a300007bffe
:020a310007bffd
:020a320007bffc
:020a330007bffb
:020a340007bffa
:020a350007bff9
:020a360007bff8
:020a370007bff7
:020a380007bff6
:020a390007bff5
:020a3a0007bff4
:020a3b0007bff3
:020a3c0007bff2
:020a3d0007bff1
:020a3e0007bff0
:020a3f0007bfef
:020a400007bfee
:020a410007bfed
:020a420007beed
:020a430007beec
:020a440007beeb
:020a450007beea
:020a460007bee9
:020a470007bee8
:020a480007bee7
:020a490007bee6
:020a4a0007bee5
:020a4b0007bee4
:020a4c0007bee3
:020a4d0007bee2
:020a4e0007bee1
:020a4f0007bee0
:020a500007bedf
:020a510007bede
:020a520007bedd
:020a530007bedc
:020a540007bedb
:020a550007beda
:020a560007bdda
:020a570007bdd9
:020a580007bdd8
:020a590007bdd7
:020a5a0007bdd6
:020a5b0007bdd5
:020a5c0007bdd4
:020a5d0007bdd3
:020a5e0007bdd2
:020a5f0007bdd1
:020a600007bdd0
:020a610007bdcf
:020a620007bdce
:020a630007bdcd
:020a640007bdcc
:020a650007bdcb
:020a660007bdca
:020a670007bdc9
:020a680007bdc8
:020a690007bdc7
:020a6a0007bcc7
:020a6b0007bcc6
:020a6c0007bcc5
:020a6d0007bcc4
:020a6e0007bcc3
:020a6f0007bcc2
:020a700007bcc1
:020a710007bcc0
:020a720007bcbf
:020a730007bcbe
:020a740007bcbd
:020a750007bcbc
:020a760007bcbb
:020a770007bcba
:020a780007bcb9
:020a790007bcb8
:020a7a0007bcb7
:020a7b0007bcb6
:020a7c0007bcb5
:020a7d0007bcb4
:020a7e0007bcb3
:020a7f0007bbb3
:020a800007bbb2
:020a810007bbb1
:020a820007bbb0
:020a830007bbaf
:020a840007bbae
:020a850007bbad
:020a860007bbac
:020a870007bbab
:020a880007bbaa
:020a890007bba9
:020a8a0007bba8
:020a8b0007bba7
:020a8c0007bba6
:020a8d0007bba5
:020a8e0007bba4
:020a8f0007bba3
:020a900007bba2
:020a910007bba1
:020a920007baa1
:020a930007baa0
:020a940007ba9f
:020a950007ba9e
:020a960007ba9d
:020a970007ba9c
:020a980007ba9b
:020a990007ba9a
:020a9a0007ba99
:020a9b0007ba98
:020a9c0007ba97
:020a9d0007ba96
:020a9e0007ba95
:020a9f0007ba94
:020aa00007ba93
:020aa10007ba92
:020aa20007ba91
:020aa30007ba90
:020aa40007ba8f
:020aa50007ba8e
:020aa60007b98e
:020aa70007b98d
:020aa80007b98c
:020aa90007b98b
:020aaa0007b98a
:020aab0007b989
:020aac0007b988
:020aad0007b987
:020aae0007b986
:020aaf0007b985
:020ab00007b984
:020ab10007b983
:020ab20007b982
:020ab30007b981
:020ab40007b980
:020ab50007b97f
:020ab60007b97e
:020ab70007b97d
:020ab80007b97c
:020ab90007b97b
:020aba0007b87b
:020abb0007b87a
:020abc0007b879
:020abd0007b878
:020abe0007b877
:020abf0007b876
:020ac00007b875
:020ac10007b874
:020ac20007b873
:020ac30007b872
:020ac40007b871
:020ac50007b870
:020ac60007b86f
:020ac70007b86e
:020ac80007b86d
:020ac90007b86c
:020aca0007b86b
:020acb0007b86a
:020acc0007b869
:020acd0007b769
:020ace0007b768
:020acf0007b767
:020ad00007b766
:020ad10007b765
:020ad20007b764
:020ad30007b763
:020ad40007b762
:020ad50007b761
:020ad60007b760
:020ad70007b75f
:020ad80007b75e
:020ad90007b75d
:020ada0007b75c
:020adb0007b75b
:020adc0007b75a
:020add0007b759
:020ade0007b758
:020adf0007b757
:020ae00007b756
:020ae10007b656
:020ae20007b655
:020ae30007b654
:020ae40007b653
:020ae50007b652
:020ae60007b651
:020ae70007b650
:020ae80007b64f
:020ae90007b64e
:020aea0007b64d
:020aeb0007b64c
:020aec0007b64b
:020aed0007b64a
:020aee0007b649
:020aef0007b648
:020af00007b647
:020af10007b646
:020af20007b645
:020af30007b644
:020af40007b544
:020af50007b543
:020af60007b542
:020af70007b541
:020af80007b540
:020af90007b53f
:020afa0007b53e
:020afb0007b53d
:020afc0007b53c
:020afd0007b53b
:020afe0007b53a
:020aff0007b539
:020b000007b537
:020b010007b536
:020b020007b535
:020b030007b534
:020b040007b533
:020b050007b532
:020b060007b531
:020b070007b431
:020b080007b430
:020b090007b42f
:020b0a0007b42e
:020b0b0007b42d
:020b0c0007b42c
:020b0d0007b42b
:020b0e0007b42a
:020b0f0007b429
:020b100007b428
:020b110007b427
:020b120007b426
:020b130007b425
:020b140007b424
:020b150007b423
:020b160007b422
:020b170007b421
:020b180007b420
:020b190007b41f
:020b1a0007b31f
:020b1b0007b31e
:020b1c0007b31d
:020b1d0007b31c
:020b1e0007b31b
:020b1f0007b31a
:020b200007b319
:020b210007b318
:020b220007b317
:020b230007b316
:020b240007b315
:020b250007b314
:020b260007b313
:020b270007b312
:020b280007b311
:020b290007b310
:020b2a0007b30f
:020b2b0007b30e
:020b2c0007b30d
:020b2d0007b20d
:020b2e0007b20c
:020b2f0007b20b
:020b300007b20a
:020b310007b209
:020b320007b208
:020b330007b207
:020b340007b206
:020b350007b205
:020b360007b204
:020b370007b203
:020b380007b202
:020b390007b201
:020b3a0007b200
:020b3b0007b2ff
:020b3c0007b2fe
:020b3d0007b2fd
:020b3e0007b2fc
:020b3f0007b2fb
:020b400007b1fb
:020b410007b1fa
:020b420007b1f9
:020b430007b1f8
:020b440007b1f7
:020b450007b1f6
:020b460007b1f5
:020b470007b1f4
:020b480007b1f3
:020b490007b1f2
:020b4a0007b1f1
:020b4b0007b1f0
:020b4c0007b1ef
:020b4d0007b1ee
:020b4e0007b1ed
:020b4f0007b1ec
:020b500007b1eb
:020b510007b1ea
:020b520007b0ea
:020b530007b0e9
:020b540007b0e8
:020b550007b0e7
:020b560007b0e6
:020b570007b0e5
:020b580007b0e4
:020b590007b0e3
:020b5a0007b0e2
:020b5b0007b0e1
:020b5c0007b0e0
:020b5d0007b0df
:020b5e0007b0de
:020b5f0007b0dd
:020b600007b0dc
:020b610007b0db
:020b620007b0da
:020b630007b0d9
:020b640007b0d8
:020b650007afd8
:020b660007afd7
:020b670007afd6
:020b680007afd5
:020b690007afd4
:020b6a0007afd3
:020b6b0007afd2
:020b6c0007afd1
:020b6d0007afd0
:020b6e0007afcf
:020b6f0007afce
:020b700007afcd
:020b710007afcc
:020b720007afcb
:020b730007afca
:020b740007afc9
:020b750007afc8
:020b760007afc7
:020b770007aec7
:020b780007aec6
:020b790007aec5
:020b7a0007aec4
:020b7b0007aec3
:020b7c0007aec2
:020b7d0007aec1
:020b7e0007aec0
:020b7f0007aebf
:020b800007aebe
:020b810007aebd
:020b820007aebc
:020b830007aebb
:020b840007aeba
:020b850007aeb9
:020b860007aeb8
:020b870007aeb7
:020b880007aeb6
:020b890007aeb5
:020b8a0007adb5
:020b8b0007adb4
:020b8c0007adb3
:020b8d0007adb2
:020b8e0007adb1
:020b8f0007adb0
:020b900007adaf
:020b910007adae
:020b920007adad
:020b930007adac
:020b940007adab
:020b950007adaa
:020b960007ada9
:020b970007ada8
:020b980007ada7
:020b990007ada6
:020b9a0007ada5
:020b9b0007ada4
:020b9c0007aca4
:020b9d0007aca3
:020b9e0007aca2
:020b9f0007aca1
:020ba00007aca0
:020ba10007ac9f
:020ba20007ac9e
:020ba30007ac9d
:020ba40007ac9c
:020ba50007ac9b
:020ba60007ac9a
:020ba70007ac99
:020ba80007ac98
:020ba90007ac97
:020baa0007ac96
:020bab0007ac95
:020bac0007ac94
:020bad0007ac93
:020bae0007ab93
:020baf0007ab92
:020bb00007ab91
:020bb10007ab90
:020bb20007ab8f
:020bb30007ab8e
:020bb40007ab8d
:020bb50007ab8c
:020bb60007ab8b
:020bb70007ab8a
:020bb80007ab89
:020bb90007ab88
:020bba0007ab87
:020bbb0007ab86
:020bbc0007ab85
:020bbd0007ab84
:020bbe0007ab83
:020bbf0007ab82
:020bc00007aa82
:020bc10007aa81
:020bc20007aa80
:020bc30007aa7f
:020bc40007aa7e
:020bc50007aa7d
:020bc60007aa7c
:020bc70007aa7b
:020bc80007aa7a
:020bc90007aa79
:020bca0007aa78
:020bcb0007aa77
:020bcc0007aa76
:020bcd0007aa75
:020bce0007aa74
:020bcf0007aa73
:020bd00007aa72
:020bd10007aa71
:020bd20007a971
:020bd30007a970
:020bd40007a96f
:020bd50007a96e
:020bd60007a96d
:020bd70007a96c
:020bd80007a96b
:020bd90007a96a
:020bda0007a969
:020bdb0007a968
:020bdc0007a967
:020bdd0007a966
:020bde0007a965
:020bdf0007a964
:020be00007a963
:020be10007a962
:020be20007a961
:020be30007a960
:020be40007a860
:020be50007a85f
:020be60007a85e
:020be70007a85d
:020be80007a85c
:020be90007a85b
:020bea0007a85a
:020beb0007a859
:020bec0007a858
:020bed0007a857
:020bee0007a856
:020bef0007a855
:020bf00007a854
:020bf10007a853
:020bf20007a852
:020bf30007a851
:020bf40007a850
:020bf50007a750
:020bf60007a74f
:020bf70007a74e
:020bf80007a74d
:020bf90007a74c
:020bfa0007a74b
:020bfb0007a74a
:020bfc0007a749
:020bfd0007a748
:020bfe0007a747
:020bff0007a746
:020c000007a744
:020c010007a743
:020c020007a742
:020c030007a741
:020c040007a740
:020c050007a73f
:020c060007a73e
:020c070007a63e
:020c080007a63d
:020c090007a63c
:020c0a0007a63b
:020c0b0007a63a
:020c0c0007a639
:020c0d0007a638
:020c0e0007a637
:020c0f0007a636
:020c100007a635
:020c110007a634
:020c120007a633
:020c130007a632
:020c140007a631
:020c150007a630
:020c160007a62f
:020c170007a62e
:020c180007a52e
:020c190007a52d
:020c1a0007a52c
:020c1b0007a52b
:020c1c0007a52a
:020c1d0007a529
:020c1e0007a528
:020c1f0007a527
:020c200007a526
:020c210007a525
:020c220007a524
:020c230007a523
:020c240007a522
:020c250007a521
:020c260007a520
:020c270007a51f
:020c280007a51e
:020c290007a51d
:020c2a0007a41d
:020c2b0007a41c
:020c2c0007a41b
:020c2d0007a41a
:020c2e0007a419
:020c2f0007a418
:020c300007a417
:020c310007a416
:020c320007a415
:020c330007a414
:020c340007a413
:020c350007a412
:020c360007a411
:020c370007a410
:020c380007a40f
:020c390007a40e
:020c3a0007a40d
:020c3b0007a30d
:020c3c0007a30c
:020c3d0007a30b
:020c3e0007a30a
:020c3f0007a309
:020c400007a308
:020c410007a307
:020c420007a306
:020c430007a305
:020c440007a304
:020c450007a303
:020c460007a302
:020c470007a301
:020c480007a300
:020c490007a3ff
:020c4a0007a3fe
:020c4b0007a3fd
:020c4c0007a2fd
:020c4d0007a2fc
:020c4e0007a2fb
:020c4f0007a2fa
:020c500007a2f9
:020c510007a2f8
:020c520007a2f7
:020c530007a2f6
:020c540007a2f5
:020c550007a2f4
:020c560007a2f3
:020c570007a2f2
:020c580007a2f1
:020c590007a2f0
:020c5a0007a2ef
:020c5b0007a2ee
:020c5c0007a2ed
:020c5d0007a1ed
:020c5e0007a1ec
:020c5f0007a1eb
:020c600007a1ea
:020c610007a1e9
:020c620007a1e8
:020c630007a1e7
:020c640007a1e6
:020c650007a1e5
:020c660007a1e4
:020c670007a1e3
:020c680007a1e2
:020c690007a1e1
:020c6a0007a1e0
:020c6b0007a1df
:020c6c0007a1de
:020c6d0007a1dd
:020c6e0007a0dd
:020c6f0007a0dc
:020c700007a0db
:020c710007a0da
:020c720007a0d9
:020c730007a0d8
:020c740007a0d7
:020c750007a0d6
:020c760007a0d5
:020c770007a0d4
:020c780007a0d3
:020c790007a0d2
:020c7a0007a0d1
:020c7b0007a0d0
:020c7c0007a0cf
:020c7d0007a0ce
:020c7e0007a0cd
:020c7f00079fcd
:020c8000079fcc
:020c8100079fcb
:020c8200079fca
:020c8300079fc9
:020c8400079fc8
:020c8500079fc7
:020c8600079fc6
:020c8700079fc5
:020c8800079fc4
:020c8900079fc3
:020c8a00079fc2
:020c8b00079fc1
:020c8c00079fc0
:020c8d00079fbf
:020c8e00079fbe
:020c8f00079fbd
:020c9000079ebd
:020c9100079ebc
:020c9200079ebb
:020c9300079eba
:020c9400079eb9
:020c9500079eb8
:020c9600079eb7
:020c9700079eb6
:020c9800079eb5
:020c9900079eb4
:020c9a00079eb3
:020c9b00079eb2
:020c9c00079eb1
:020c9d00079eb0
:020c9e00079eaf
:020c9f00079eae
:020ca000079ead
:020ca100079dad
:020ca200079dac
:020ca300079dab
:020ca400079daa
:020ca500079da9
:020ca600079da8
:020ca700079da7
:020ca800079da6
:020ca900079da5
:020caa00079da4
:020cab00079da3
:020cac00079da2
:020cad00079da1
:020cae00079da0
:020caf00079d9f
:020cb000079d9e
:020cb100079c9e
:020cb200079c9d
:020cb300079c9c
:020cb400079c9b
:020cb500079c9a
:020cb600079c99
:020cb700079c98
:020cb800079c97
:020cb900079c96
:020cba00079c95
:020cbb00079c94
:020cbc00079c93
:020cbd00079c92
:020cbe00079c91
:020cbf00079c90
:020cc000079c8f
:020cc100079c8e
:020cc200079b8e
:020cc300079b8d
:020cc400079b8c
:020cc500079b8b
:020cc600079b8a
:020cc700079b89
:020cc800079b88
:020cc900079b87
:020cca00079b86
:020ccb00079b85
:020ccc00079b84
:020ccd00079b83
:020cce00079b82
:020ccf00079b81
:020cd000079b80
:020cd100079b7f
:020cd200079a7f
:020cd300079a7e
:020cd400079a7d
:020cd500079a7c
:020cd600079a7b
:020cd700079a7a
:020cd800079a79
:020cd900079a78
:020cda00079a77
:020cdb00079a76
:020cdc00079a75
:020cdd00079a74
:020cde00079a73
:020cdf00079a72
:020ce000079a71
:020ce100079a70
:020ce200079a6f
:020ce30007996f
:020ce40007996e
:020ce50007996d
:020ce60007996c
:020ce70007996b
:020ce80007996a
:020ce900079969
:020cea00079968
:020ceb00079967
:020cec00079966
:020ced00079965
:020cee00079964
:020cef00079963
:020cf000079962
:020cf100079961
:020cf200079960
:020cf300079860
:020cf40007985f
:020cf50007985e
:020cf60007985d
:020cf70007985c
:020cf80007985b
:020cf90007985a
:020cfa00079859
:020cfb00079858
:020cfc00079857
:020cfd00079856
:020cfe00079855
:020cff00079854
:020d0000079852
:020d0100079851
:020d0200079850
:020d0300079750
:020d040007974f
:020d050007974e
:020d060007974d
:020d070007974c
:020d080007974b
:020d090007974a
:020d0a00079749
:020d0b00079748
:020d0c00079747
:020d0d00079746
:020d0e00079745
:020d0f00079744
:020d1000079743
:020d1100079742
:020d1200079741
:020d1300079740
:020d1400079640
:020d150007963f
:020d160007963e
:020d170007963d
:020d180007963c
:020d190007963b
:020d1a0007963a
:020d1b00079639
:020d1c00079638
:020d1d00079637
:020d1e00079636
:020d1f00079635
:020d2000079634
:020d2100079633
:020d2200079632
:020d2300079631
:020d2400079531
:020d2500079530
:020d260007952f
:020d270007952e
:020d280007952d
:020d290007952c
:020d2a0007952b
:020d2b0007952a
:020d2c00079529
:020d2d00079528
:020d2e00079527
:020d2f00079526
:020d3000079525
:020d3100079524
:020d3200079523
:020d3300079522
:020d3400079422
:020d3500079421
:020d3600079420
:020d370007941f
:020d380007941e
:020d390007941d
:020d3a0007941c
:020d3b0007941b
:020d3c0007941a
:020d3d00079419
:020d3e00079418
:020d3f00079417
:020d4000079416
:020d4100079415
:020d4200079414
:020d4300079413
:020d4400079313
:020d4500079312
:020d4600079311
:020d4700079310
:020d480007930f
:020d490007930e
:020d4a0007930d
:020d4b0007930c
:020d4c0007930b
:020d4d0007930a
:020d4e00079309
:020d4f00079308
:020d5000079307
:020d5100079306
:020d5200079305
:020d5300079304
:020d5400079204
:020d5500079203
:020d5600079202
:020d5700079201
:020d5800079200
:020d59000792ff
:020d5a000792fe
:020d5b000792fd
:020d5c000792fc
:020d5d000792fb
:020d5e000792fa
:020d5f000792f9
:020d60000792f8
:020d61000792f7
:020d62000792f6
:020d63000792f5
:020d64000791f5
:020d65000791f4
:020d66000791f3
:020d67000791f2
:020d68000791f1
:020d69000791f0
:020d6a000791ef
:020d6b000791ee
:020d6c000791ed
:020d6d000791ec
:020d6e000791eb
:020d6f000791ea
:020d70000791e9
:020d71000791e8
:020d72000791e7
:020d73000790e7
:020d74000790e6
:020d75000790e5
:020d76000790e4
:020d77000790e3
:020d78000790e2
:020d79000790e1
:020d7a000790e0
:020d7b000790df
:020d7c000790de
:020d7d000790dd
:020d7e000790dc
:020d7f000790db
:020d80000790da
:020d81000790d9
:020d82000790d8
:020d8300078fd8
:020d8400078fd7
:020d8500078fd6
:020d8600078fd5
:020d8700078fd4
:020d8800078fd3
:020d8900078fd2
:020d8a00078fd1
:020d8b00078fd0
:020d8c00078fcf
:020d8d00078fce
:020d8e00078fcd
:020d8f00078fcc
:020d9000078fcb
:020d9100078fca
:020d9200078fc9
:020d9300078ec9
:020d9400078ec8
:020d9500078ec7
:020d9600078ec6
:020d9700078ec5
:020d9800078ec4
:020d9900078ec3
:020d9a00078ec2
:020d9b00078ec1
:020d9c00078ec0
:020d9d00078ebf
:020d9e00078ebe
:020d9f00078ebd
:020da000078ebc
:020da100078ebb
:020da200078dbb
:020da300078dba
:020da400078db9
:020da500078db8
:020da600078db7
:020da700078db6
:020da800078db5
:020da900078db4
:020daa00078db3
:020dab00078db2
:020dac00078db1
:020dad00078db0
:020dae00078daf
:020daf00078dae
:020db000078dad
:020db100078dac
:020db200078cac
:020db300078cab
:020db400078caa
:020db500078ca9
:020db600078ca8
:020db700078ca7
:020db800078ca6
:020db900078ca5
:020dba00078ca4
:020dbb00078ca3
:020dbc00078ca2
:020dbd00078ca1
:020dbe00078ca0
:020dbf00078c9f
:020dc000078c9e
:020dc100078b9e
:020dc200078b9d
:020dc300078b9c
:020dc400078b9b
:020dc500078b9a
:020dc600078b99
:020dc700078b98
:020dc800078b97
:020dc900078b96
:020dca00078b95
:020dcb00078b94
:020dcc00078b93
:020dcd00078b92
:020dce00078b91
:020dcf00078b90
:020dd000078a90
:020dd100078a8f
:020dd200078a8e
:020dd300078a8d
:020dd400078a8c
:020dd500078a8b
:020dd600078a8a
:020dd700078a89
:020dd800078a88
:020dd900078a87
:020dda00078a86
:020ddb00078a85
:020ddc00078a84
:020ddd00078a83
:020dde00078a82
:020ddf00078a81
:020de000078981
:020de100078980
:020de20007897f
:020de30007897e
:020de40007897d
:020de50007897c
:020de60007897b
:020de70007897a
:020de800078979
:020de900078978
:020dea00078977
:020deb00078976
:020dec00078975
:020ded00078974
:020dee00078973
:020def00078873
:020df000078872
:020df100078871
:020df200078870
:020df30007886f
:020df40007886e
:020df50007886d
:020df60007886c
:020df70007886b
:020df80007886a
:020df900078869
:020dfa00078868
:020dfb00078867
:020dfc00078866
:020dfd00078865
:020dfe00078765
:020dff00078764
:020e0000078762
:020e0100078761
:020e0200078760
:020e030007875f
:020e040007875e
:020e050007875d
:020e060007875c
:020e070007875b
:020e080007875a
:020e0900078759
:020e0a00078758
:020e0b00078757
:020e0c00078756
:020e0d00078656
:020e0e00078655
:020e0f00078654
:020e1000078653
:020e1100078652
:020e1200078651
:020e1300078650
:020e140007864f
:020e150007864e
:020e160007864d
:020e170007864c
:020e180007864b
:020e190007864a
:020e1a00078649
:020e1b00078648
:020e1c00078548
:020e1d00078547
:020e1e00078546
:020e1f00078545
:020e2000078544
:020e2100078543
:020e2200078542
:020e2300078541
:020e2400078540
:020e250007853f
:020e260007853e
:020e270007853d
:020e280007853c
:020e290007853b
:020e2a0007853a
:020e2b0007843a
:020e2c00078439
:020e2d00078438
:020e2e00078437
:020e2f00078436
:020e3000078435
:020e3100078434
:020e3200078433
:020e3300078432
:020e3400078431
:020e3500078430
:020e360007842f
:020e370007842e
:020e380007842d
:020e390007842c
:020e3a0007832c
:020e3b0007832b
:020e3c0007832a
:020e3d00078329
:020e3e00078328
:020e3f00078327
:020e4000078326
:020e4100078325
:020e4200078324
:020e4300078323
:020e4400078322
:020e4500078321
:020e4600078320
:020e470007831f
:020e480007831e
:020e490007821e
:020e4a0007821d
:020e4b0007821c
:020e4c0007821b
:020e4d0007821a
:020e4e00078219
:020e4f00078218
:020e5000078217
:020e5100078216
:020e5200078215
:020e5300078214
:020e5400078213
:020e5500078212
:020e5600078211
:020e5700078210
:020e5800078110
:020e590007810f
:020e5a0007810e
:020e5b0007810d
:020e5c0007810c
:020e5d0007810b
:020e5e0007810a
:020e5f00078109
:020e6000078108
:020e6100078107
:020e6200078106
:020e6300078105
:020e6400078104
:020e6500078103
:020e6600078102
:020e6700078002
:020e6800078001
:020e6900078000
:020e6a000780ff
:020e6b000780fe
:020e6c000780fd
:020e6d000780fc
:020e6e000780fb
:020e6f000780fa
:020e70000780f9
:020e71000780f8
:020e72000780f7
:020e73000780f6
:020e74000780f5
:020e7500077ff5
:020e7600077ff4
:020e7700077ff3
:020e7800077ff2
:020e7900077ff1
:020e7a00077ff0
:020e7b00077fef
:020e7c00077fee
:020e7d00077fed
:020e7e00077fec
:020e7f00077feb
:020e8000077fea
:020e8100077fe9
:020e8200077fe8
:020e8300077fe7
:020e8400077ee7
:020e8500077ee6
:020e8600077ee5
:020e8700077ee4
:020e8800077ee3
:020e8900077ee2
:020e8a00077ee1
:020e8b00077ee0
:020e8c00077edf
:020e8d00077ede
:020e8e00077edd
:020e8f00077edc
:020e9000077edb
:020e9100077eda
:020e9200077dda
:020e9300077dd9
:020e9400077dd8
:020e9500077dd7
:020e9600077dd6
:020e9700077dd5
:020e9800077dd4
:020e9900077dd3
:020e9a00077dd2
:020e9b00077dd1
:020e9c00077dd0
:020e9d00077dcf
:020e9e00077dce
:020e9f00077dcd
:020ea000077dcc
:020ea100077ccc
:020ea200077ccb
:020ea300077cca
:020ea400077cc9
:020ea500077cc8
:020ea600077cc7
:020ea700077cc6
:020ea800077cc5
:020ea900077cc4
:020eaa00077cc3
:020eab00077cc2
:020eac00077cc1
:020ead00077cc0
:020eae00077cbf
:020eaf00077bbf
:020eb000077bbe
:020eb100077bbd
:020eb200077bbc
:020eb300077bbb
:020eb400077bba
:020eb500077bb9
:020eb600077bb8
:020eb700077bb7
:020eb800077bb6
:020eb900077bb5
:020eba00077bb4
:020ebb00077bb3
:020ebc00077bb2
:020ebd00077bb1
:020ebe00077ab1
:020ebf00077ab0
:020ec000077aaf
:020ec100077aae
:020ec200077aad
:020ec300077aac
:020ec400077aab
:020ec500077aaa
:020ec600077aa9
:020ec700077aa8
:020ec800077aa7
:020ec900077aa6
:020eca00077aa5
:020ecb00077aa4
:020ecc000779a4
:020ecd000779a3
:020ece000779a2
:020ecf000779a1
:020ed0000779a0
:020ed10007799f
:020ed20007799e
:020ed30007799d
:020ed40007799c
:020ed50007799b
:020ed60007799a
:020ed700077999
:020ed800077998
:020ed900077997
:020eda00077996
:020edb00077896
:020edc00077895
:020edd00077894
:020ede00077893
:020edf00077892
:020ee000077891
:020ee100077890
:020ee20007788f
:020ee30007788e
:020ee40007788d
:020ee50007788c
:020ee60007788b
:020ee70007788a
:020ee800077889
:020ee900077789
:020eea00077788
:020eeb00077787
:020eec00077786
:020eed00077785
:020eee00077784
:020eef00077783
:020ef000077782
:020ef100077781
:020ef200077780
:020ef30007777f
:020ef40007777e
:020ef50007777d
:020ef60007777c
:020ef70007767c
:020ef80007767b
:020ef90007767a
:020efa00077679
:020efb00077678
:020efc00077677
:020efd00077676
:020efe00077675
:020eff00077674
:020f0000077672
:020f0100077671
:020f0200077670
:020f030007766f
:020f040007766e
:020f050007756e
:020f060007756d
:020f070007756c
:020f080007756b
:020f090007756a
:020f0a00077569
:020f0b00077568
:020f0c00077567
:020f0d00077566
:020f0e00077565
:020f0f00077564
:020f1000077563
:020f1100077562
:020f1200077561
:020f1300077461
:020f1400077460
:020f150007745f
:020f160007745e
:020f170007745d
:020f180007745c
:020f190007745b
:020f1a0007745a
:020f1b00077459
:020f1c00077458
:020f1d00077457
:020f1e00077456
:020f1f00077455
:020f2000077454
:020f2100077354
:020f2200077353
:020f2300077352
:020f2400077351
:020f2500077350
:020f260007734f
:020f270007734e
:020f280007734d
:020f290007734c
:020f2a0007734b
:020f2b0007734a
:020f2c00077349
:020f2d00077348
:020f2e00077347
:020f2f00077247
:020f3000077246
:020f3100077245
:020f3200077244
:020f3300077243
:020f3400077242
:020f3500077241
:020f3600077240
:020f370007723f
:020f380007723e
:020f390007723d
:020f3a0007723c
:020f3b0007723b
:020f3c0007723a
:020f3d0007713a
:020f3e00077139
:020f3f00077138
:020f4000077137
:020f4100077136
:020f4200077135
:020f4300077134
:020f4400077133
:020f4500077132
:020f4600077131
:020f4700077130
:020f480007712f
:020f490007712e
:020f4a0007712d
:020f4b0007702d
:020f4c0007702c
:020f4d0007702b
:020f4e0007702a
:020f4f00077029
:020f5000077028
:020f5100077027
:020f5200077026
:020f5300077025
:020f5400077024
:020f5500077023
:020f5600077022
:020f5700077021
:020f5800077020
:020f5900076f20
:020f5a00076f1f
:020f5b00076f1e
:020f5c00076f1d
:020f5d00076f1c
:020f5e00076f1b
:020f5f00076f1a
:020f6000076f19
:020f6100076f18
:020f6200076f17
:020f6300076f16
:020f6400076f15
:020f6500076f14
:020f6600076f13
:020f6700076e13
:020f6800076e12
:020f6900076e11
:020f6a00076e10
:020f6b00076e0f
:020f6c00076e0e
:020f6d00076e0d
:020f6e00076e0c
:020f6f00076e0b
:020f7000076e0a
:020f7100076e09
:020f7200076e08
:020f7300076e07
:020f7400076e06
:020f7500076d06
:020f7600076d05
:020f7700076d04
:020f7800076d03
:020f7900076d02
:020f7a00076d01
:020f7b00076d00
:020f7c00076dff
:020f7d00076dfe
:020f7e00076dfd
:020f7f00076dfc
:020f8000076dfb
:020f8100076dfa
:020f8200076df9
:020f8300076cf9
:020f8400076cf8
:020f8500076cf7
:020f8600076cf6
:020f8700076cf5
:020f8800076cf4
:020f8900076cf3
:020f8a00076cf2
:020f8b00076cf1
:020f8c00076cf0
:020f8d00076cef
:020f8e00076cee
:020f8f00076ced
:020f9000076bed
:020f9100076bec
:020f9200076beb
:020f9300076bea
:020f9400076be9
:020f9500076be8
:020f9600076be7
:020f9700076be6
:020f9800076be5
:020f9900076be4
:020f9a00076be3
:020f9b00076be2
:020f9c00076be1
:020f9d00076be0
:020f9e00076ae0
:020f9f00076adf
